{
  "_format": "hh-sol-artifact-1",
  "contractName": "Assessment",
  "sourceName": "contracts/Assessment.sol",
  "abi": [
    {
      "inputs": [
        {
          "internalType": "string",
          "name": "_greeting",
          "type": "string"
        },
        {
          "internalType": "uint256",
          "name": "_number",
          "type": "uint256"
        }
      ],
      "stateMutability": "nonpayable",
      "type": "constructor"
    },
    {
      "stateMutability": "payable",
      "type": "fallback"
    },
    {
      "inputs": [],
      "name": "getGreeting",
      "outputs": [
        {
          "internalType": "string",
          "name": "",
          "type": "string"
        }
      ],
      "stateMutability": "view",
      "type": "function"
    },
    {
      "inputs": [],
      "name": "getNumber",
      "outputs": [
        {
          "internalType": "uint256",
          "name": "",
          "type": "uint256"
        }
      ],
      "stateMutability": "view",
      "type": "function"
    },
    {
      "inputs": [],
      "name": "greeting",
      "outputs": [
        {
          "internalType": "string",
          "name": "",
          "type": "string"
        }
      ],
      "stateMutability": "view",
      "type": "function"
    },
    {
      "inputs": [],
      "name": "number",
      "outputs": [
        {
          "internalType": "uint256",
          "name": "",
          "type": "uint256"
        }
      ],
      "stateMutability": "view",
      "type": "function"
    },
    {
      "inputs": [],
      "name": "resetGreeting",
      "outputs": [],
      "stateMutability": "nonpayable",
      "type": "function"
    },
    {
      "inputs": [],
      "name": "resetNumber",
      "outputs": [],
      "stateMutability": "nonpayable",
      "type": "function"
    },
    {
      "inputs": [],
      "name": "reverseGreeting",
      "outputs": [],
      "stateMutability": "nonpayable",
      "type": "function"
    },
    {
      "inputs": [
        {
          "internalType": "string",
          "name": "_newGreeting",
          "type": "string"
        }
      ],
      "name": "setGreeting",
      "outputs": [],
      "stateMutability": "nonpayable",
      "type": "function"
    },
    {
      "inputs": [
        {
          "internalType": "uint256",
          "name": "_newNumber",
          "type": "uint256"
        }
      ],
      "name": "setNumber",
      "outputs": [],
      "stateMutability": "nonpayable",
      "type": "function"
    }
  ],
  "bytecode": "0x60806040523480156200001157600080fd5b50604051620011f2380380620011f2833981810160405281019062000037919062000226565b8160009081620000489190620004cd565b50806001819055505050620005b4565b6000604051905090565b600080fd5b600080fd5b600080fd5b600080fd5b6000601f19601f8301169050919050565b7f4e487b7100000000000000000000000000000000000000000000000000000000600052604160045260246000fd5b620000c18262000076565b810181811067ffffffffffffffff82111715620000e357620000e262000087565b5b80604052505050565b6000620000f862000058565b9050620001068282620000b6565b919050565b600067ffffffffffffffff82111562000129576200012862000087565b5b620001348262000076565b9050602081019050919050565b60005b838110156200016157808201518184015260208101905062000144565b60008484015250505050565b6000620001846200017e846200010b565b620000ec565b905082815260208101848484011115620001a357620001a262000071565b5b620001b084828562000141565b509392505050565b600082601f830112620001d057620001cf6200006c565b5b8151620001e28482602086016200016d565b91505092915050565b6000819050919050565b6200020081620001eb565b81146200020c57600080fd5b50565b6000815190506200022081620001f5565b92915050565b6000806040838503121562000240576200023f62000062565b5b600083015167ffffffffffffffff81111562000261576200026062000067565b5b6200026f85828601620001b8565b925050602062000282858286016200020f565b9150509250929050565b600081519050919050565b7f4e487b7100000000000000000000000000000000000000000000000000000000600052602260045260246000fd5b60006002820490506001821680620002df57607f821691505b602082108103620002f557620002f462000297565b5b50919050565b60008190508160005260206000209050919050565b60006020601f8301049050919050565b600082821b905092915050565b6000600883026200035f7fffffffffffffffffffffffffffffffffffffffffffffffffffffffffffffffff8262000320565b6200036b868362000320565b95508019841693508086168417925050509392505050565b6000819050919050565b6000620003ae620003a8620003a284620001eb565b62000383565b620001eb565b9050919050565b6000819050919050565b620003ca836200038d565b620003e2620003d982620003b5565b8484546200032d565b825550505050565b600090565b620003f9620003ea565b62000406818484620003bf565b505050565b5b818110156200042e5762000422600082620003ef565b6001810190506200040c565b5050565b601f8211156200047d576200044781620002fb565b620004528462000310565b8101602085101562000462578190505b6200047a620004718562000310565b8301826200040b565b50505b505050565b600082821c905092915050565b6000620004a26000198460080262000482565b1980831691505092915050565b6000620004bd83836200048f565b9150826002028217905092915050565b620004d8826200028c565b67ffffffffffffffff811115620004f457620004f362000087565b5b620005008254620002c6565b6200050d82828562000432565b600060209050601f83116001811462000545576000841562000530578287015190505b6200053c8582620004af565b865550620005ac565b601f1984166200055586620002fb565b60005b828110156200057f5784890151825560018201915060208501945060208101905062000558565b868310156200059f57848901516200059b601f8916826200048f565b8355505b6001600288020188555050505b505050505050565b610c2e80620005c46000396000f3fe60806040526004361061008a5760003560e01c80638381f58a116100595780638381f58a146100fb578063a413686214610126578063ef690cc01461014f578063f2c9ecd81461017a578063fe50cc72146101a55761008b565b80633fb5c1cb1461008d5780634cbf9e31146100b65780635035df81146100cd5780637cfd0b4f146100e45761008b565b5b005b34801561009957600080fd5b506100b460048036038101906100af9190610559565b6101d0565b005b3480156100c257600080fd5b506100cb6101da565b005b3480156100d957600080fd5b506100e26101fb565b005b3480156100f057600080fd5b506100f9610205565b005b34801561010757600080fd5b506101106103cc565b60405161011d9190610595565b60405180910390f35b34801561013257600080fd5b5061014d600480360381019061014891906106f6565b6103d2565b005b34801561015b57600080fd5b506101646103e5565b60405161017191906107be565b60405180910390f35b34801561018657600080fd5b5061018f610473565b60405161019c9190610595565b60405180910390f35b3480156101b157600080fd5b506101ba61047d565b6040516101c791906107be565b60405180910390f35b8060018190555050565b60405180602001604052806000815250600090816101f891906109ec565b50565b6000600181905550565b60008080546102139061080f565b80601f016020809104026020016040519081016040528092919081815260200182805461023f9061080f565b801561028c5780601f106102615761010080835404028352916020019161028c565b820191906000526020600020905b81548152906001019060200180831161026f57829003601f168201915b5050505050905060008151905060005b6002826102a99190610b1c565b8110156103b75760008382815181106102c5576102c4610b4d565b5b602001015160f81c60f81b905083600183856102e19190610b7c565b6102eb9190610b7c565b815181106102fc576102fb610b4d565b5b602001015160f81c60f81b84838151811061031a57610319610b4d565b5b60200101907effffffffffffffffffffffffffffffffffffffffffffffffffffffffffffff1916908160001a9053508084600184866103599190610b7c565b6103639190610b7c565b8151811061037457610373610b4d565b5b60200101907effffffffffffffffffffffffffffffffffffffffffffffffffffffffffffff1916908160001a9053505080806103af90610bb0565b91505061029c565b5081600090816103c791906109ec565b505050565b60015481565b80600090816103e191906109ec565b5050565b600080546103f29061080f565b80601f016020809104026020016040519081016040528092919081815260200182805461041e9061080f565b801561046b5780601f106104405761010080835404028352916020019161046b565b820191906000526020600020905b81548152906001019060200180831161044e57829003601f168201915b505050505081565b6000600154905090565b60606000805461048c9061080f565b80601f01602080910402602001604051908101604052809291908181526020018280546104b89061080f565b80156105055780601f106104da57610100808354040283529160200191610505565b820191906000526020600020905b8154815290600101906020018083116104e857829003601f168201915b5050505050905090565b6000604051905090565b600080fd5b600080fd5b6000819050919050565b61053681610523565b811461054157600080fd5b50565b6000813590506105538161052d565b92915050565b60006020828403121561056f5761056e610519565b5b600061057d84828501610544565b91505092915050565b61058f81610523565b82525050565b60006020820190506105aa6000830184610586565b92915050565b600080fd5b600080fd5b6000601f19601f8301169050919050565b7f4e487b7100000000000000000000000000000000000000000000000000000000600052604160045260246000fd5b610603826105ba565b810181811067ffffffffffffffff82111715610622576106216105cb565b5b80604052505050565b600061063561050f565b905061064182826105fa565b919050565b600067ffffffffffffffff821115610661576106606105cb565b5b61066a826105ba565b9050602081019050919050565b82818337600083830152505050565b600061069961069484610646565b61062b565b9050828152602081018484840111156106b5576106b46105b5565b5b6106c0848285610677565b509392505050565b600082601f8301126106dd576106dc6105b0565b5b81356106ed848260208601610686565b91505092915050565b60006020828403121561070c5761070b610519565b5b600082013567ffffffffffffffff81111561072a5761072961051e565b5b610736848285016106c8565b91505092915050565b600081519050919050565b600082825260208201905092915050565b60005b8381101561077957808201518184015260208101905061075e565b60008484015250505050565b60006107908261073f565b61079a818561074a565b93506107aa81856020860161075b565b6107b3816105ba565b840191505092915050565b600060208201905081810360008301526107d88184610785565b905092915050565b7f4e487b7100000000000000000000000000000000000000000000000000000000600052602260045260246000fd5b6000600282049050600182168061082757607f821691505b60208210810361083a576108396107e0565b5b50919050565b60008190508160005260206000209050919050565b60006020601f8301049050919050565b600082821b905092915050565b6000600883026108a27fffffffffffffffffffffffffffffffffffffffffffffffffffffffffffffffff82610865565b6108ac8683610865565b95508019841693508086168417925050509392505050565b6000819050919050565b60006108e96108e46108df84610523565b6108c4565b610523565b9050919050565b6000819050919050565b610903836108ce565b61091761090f826108f0565b848454610872565b825550505050565b600090565b61092c61091f565b6109378184846108fa565b505050565b5b8181101561095b57610950600082610924565b60018101905061093d565b5050565b601f8211156109a05761097181610840565b61097a84610855565b81016020851015610989578190505b61099d61099585610855565b83018261093c565b50505b505050565b600082821c905092915050565b60006109c3600019846008026109a5565b1980831691505092915050565b60006109dc83836109b2565b9150826002028217905092915050565b6109f58261073f565b67ffffffffffffffff811115610a0e57610a0d6105cb565b5b610a18825461080f565b610a2382828561095f565b600060209050601f831160018114610a565760008415610a44578287015190505b610a4e85826109d0565b865550610ab6565b601f198416610a6486610840565b60005b82811015610a8c57848901518255600182019150602085019450602081019050610a67565b86831015610aa95784890151610aa5601f8916826109b2565b8355505b6001600288020188555050505b505050505050565b7f4e487b7100000000000000000000000000000000000000000000000000000000600052601260045260246000fd5b7f4e487b7100000000000000000000000000000000000000000000000000000000600052601160045260246000fd5b6000610b2782610523565b9150610b3283610523565b925082610b4257610b41610abe565b5b828204905092915050565b7f4e487b7100000000000000000000000000000000000000000000000000000000600052603260045260246000fd5b6000610b8782610523565b9150610b9283610523565b9250828203905081811115610baa57610ba9610aed565b5b92915050565b6000610bbb82610523565b91507fffffffffffffffffffffffffffffffffffffffffffffffffffffffffffffffff8203610bed57610bec610aed565b5b60018201905091905056fea26469706673582212200b5bb3414074fcc207699e0cde03bfd4e6e7d2a9ec83e8a40c5bec420c30760464736f6c63430008110033",
  "linkReferences": {},
  "deployedLinkReferences": {}
}